{
  "_format": "hh-sol-artifact-1",
  "contractName": "KNft",
  "sourceName": "contracts/KNft.sol",
  "abi": [
    {
      "inputs": [
        {
          "internalType": "string",
          "name": "_name",
          "type": "string"
        },
        {
          "internalType": "string",
          "name": "_symbol",
          "type": "string"
        }
      ],
      "stateMutability": "nonpayable",
      "type": "constructor"
    },
    {
      "anonymous": false,
      "inputs": [
        {
          "indexed": true,
          "internalType": "address",
          "name": "owner",
          "type": "address"
        },
        {
          "indexed": true,
          "internalType": "address",
          "name": "approved",
          "type": "address"
        },
        {
          "indexed": true,
          "internalType": "uint256",
          "name": "tokenId",
          "type": "uint256"
        }
      ],
      "name": "Approval",
      "type": "event"
    },
    {
      "anonymous": false,
      "inputs": [
        {
          "indexed": true,
          "internalType": "address",
          "name": "owner",
          "type": "address"
        },
        {
          "indexed": true,
          "internalType": "address",
          "name": "operator",
          "type": "address"
        },
        {
          "indexed": false,
          "internalType": "bool",
          "name": "approved",
          "type": "bool"
        }
      ],
      "name": "ApprovalForAll",
      "type": "event"
    },
    {
      "anonymous": false,
      "inputs": [
        {
          "indexed": true,
          "internalType": "address",
          "name": "from",
          "type": "address"
        },
        {
          "indexed": true,
          "internalType": "address",
          "name": "to",
          "type": "address"
        },
        {
          "indexed": true,
          "internalType": "uint256",
          "name": "tokenId",
          "type": "uint256"
        }
      ],
      "name": "Transfer",
      "type": "event"
    },
    {
      "inputs": [
        {
          "internalType": "address",
          "name": "to",
          "type": "address"
        },
        {
          "internalType": "uint256",
          "name": "tokenId",
          "type": "uint256"
        }
      ],
      "name": "approve",
      "outputs": [],
      "stateMutability": "nonpayable",
      "type": "function"
    },
    {
      "inputs": [
        {
          "internalType": "address",
          "name": "owner",
          "type": "address"
        }
      ],
      "name": "balanceOf",
      "outputs": [
        {
          "internalType": "uint256",
          "name": "",
          "type": "uint256"
        }
      ],
      "stateMutability": "view",
      "type": "function"
    },
    {
      "inputs": [],
      "name": "collectionName",
      "outputs": [
        {
          "internalType": "string",
          "name": "",
          "type": "string"
        }
      ],
      "stateMutability": "view",
      "type": "function"
    },
    {
      "inputs": [],
      "name": "collectionSymbol",
      "outputs": [
        {
          "internalType": "string",
          "name": "",
          "type": "string"
        }
      ],
      "stateMutability": "view",
      "type": "function"
    },
    {
      "inputs": [],
      "name": "createNft",
      "outputs": [
        {
          "internalType": "uint256",
          "name": "",
          "type": "uint256"
        }
      ],
      "stateMutability": "nonpayable",
      "type": "function"
    },
    {
      "inputs": [
        {
          "internalType": "uint256",
          "name": "tokenId",
          "type": "uint256"
        }
      ],
      "name": "getApproved",
      "outputs": [
        {
          "internalType": "address",
          "name": "",
          "type": "address"
        }
      ],
      "stateMutability": "view",
      "type": "function"
    },
    {
      "inputs": [
        {
          "internalType": "address",
          "name": "owner",
          "type": "address"
        },
        {
          "internalType": "address",
          "name": "operator",
          "type": "address"
        }
      ],
      "name": "isApprovedForAll",
      "outputs": [
        {
          "internalType": "bool",
          "name": "",
          "type": "bool"
        }
      ],
      "stateMutability": "view",
      "type": "function"
    },
    {
      "inputs": [],
      "name": "name",
      "outputs": [
        {
          "internalType": "string",
          "name": "",
          "type": "string"
        }
      ],
      "stateMutability": "view",
      "type": "function"
    },
    {
      "inputs": [
        {
          "internalType": "uint256",
          "name": "tokenId",
          "type": "uint256"
        }
      ],
      "name": "ownerOf",
      "outputs": [
        {
          "internalType": "address",
          "name": "",
          "type": "address"
        }
      ],
      "stateMutability": "view",
      "type": "function"
    },
    {
      "inputs": [
        {
          "internalType": "address",
          "name": "from",
          "type": "address"
        },
        {
          "internalType": "address",
          "name": "to",
          "type": "address"
        },
        {
          "internalType": "uint256",
          "name": "tokenId",
          "type": "uint256"
        }
      ],
      "name": "safeTransferFrom",
      "outputs": [],
      "stateMutability": "nonpayable",
      "type": "function"
    },
    {
      "inputs": [
        {
          "internalType": "address",
          "name": "from",
          "type": "address"
        },
        {
          "internalType": "address",
          "name": "to",
          "type": "address"
        },
        {
          "internalType": "uint256",
          "name": "tokenId",
          "type": "uint256"
        },
        {
          "internalType": "bytes",
          "name": "data",
          "type": "bytes"
        }
      ],
      "name": "safeTransferFrom",
      "outputs": [],
      "stateMutability": "nonpayable",
      "type": "function"
    },
    {
      "inputs": [
        {
          "internalType": "address",
          "name": "operator",
          "type": "address"
        },
        {
          "internalType": "bool",
          "name": "approved",
          "type": "bool"
        }
      ],
      "name": "setApprovalForAll",
      "outputs": [],
      "stateMutability": "nonpayable",
      "type": "function"
    },
    {
      "inputs": [
        {
          "internalType": "bytes4",
          "name": "interfaceId",
          "type": "bytes4"
        }
      ],
      "name": "supportsInterface",
      "outputs": [
        {
          "internalType": "bool",
          "name": "",
          "type": "bool"
        }
      ],
      "stateMutability": "view",
      "type": "function"
    },
    {
      "inputs": [],
      "name": "symbol",
      "outputs": [
        {
          "internalType": "string",
          "name": "",
          "type": "string"
        }
      ],
      "stateMutability": "view",
      "type": "function"
    },
    {
      "inputs": [
        {
          "internalType": "uint256",
          "name": "tokenId",
          "type": "uint256"
        }
      ],
      "name": "tokenURI",
      "outputs": [
        {
          "internalType": "string",
          "name": "",
          "type": "string"
        }
      ],
      "stateMutability": "view",
      "type": "function"
    },
    {
      "inputs": [
        {
          "internalType": "address",
          "name": "from",
          "type": "address"
        },
        {
          "internalType": "address",
          "name": "to",
          "type": "address"
        },
        {
          "internalType": "uint256",
          "name": "tokenId",
          "type": "uint256"
        }
      ],
      "name": "transferFrom",
      "outputs": [],
      "stateMutability": "nonpayable",
      "type": "function"
    }
  ],
  "bytecode": "0x60806040523480156200001157600080fd5b5060405162003460380380620034608339818101604052810190620000379190620002c2565b818181600090805190602001906200005192919062000075565b5080600190805190602001906200006a92919062000075565b5050505050620003ac565b828054620000839062000376565b90600052602060002090601f016020900481019282620000a75760008555620000f3565b82601f10620000c257805160ff1916838001178555620000f3565b82800160010185558215620000f3579182015b82811115620000f2578251825591602001919060010190620000d5565b5b50905062000102919062000106565b5090565b5b808211156200012157600081600090555060010162000107565b5090565b6000604051905090565b600080fd5b600080fd5b600080fd5b600080fd5b6000601f19601f8301169050919050565b7f4e487b7100000000000000000000000000000000000000000000000000000000600052604160045260246000fd5b6200018e8262000143565b810181811067ffffffffffffffff82111715620001b057620001af62000154565b5b80604052505050565b6000620001c562000125565b9050620001d3828262000183565b919050565b600067ffffffffffffffff821115620001f657620001f562000154565b5b620002018262000143565b9050602081019050919050565b60005b838110156200022e57808201518184015260208101905062000211565b838111156200023e576000848401525b50505050565b60006200025b6200025584620001d8565b620001b9565b9050828152602081018484840111156200027a57620002796200013e565b5b620002878482856200020e565b509392505050565b600082601f830112620002a757620002a662000139565b5b8151620002b984826020860162000244565b91505092915050565b60008060408385031215620002dc57620002db6200012f565b5b600083015167ffffffffffffffff811115620002fd57620002fc62000134565b5b6200030b858286016200028f565b925050602083015167ffffffffffffffff8111156200032f576200032e62000134565b5b6200033d858286016200028f565b9150509250929050565b7f4e487b7100000000000000000000000000000000000000000000000000000000600052602260045260246000fd5b600060028204905060018216806200038f57607f821691505b60208210811415620003a657620003a562000347565b5b50919050565b6130a480620003bc6000396000f3fe608060405234801561001057600080fd5b50600436106101005760003560e01c80636352211e11610097578063b88d4fde11610066578063b88d4fde146102ad578063c87b56dd146102c9578063e5326ab1146102f9578063e985e9c51461031757610100565b80636352211e1461021357806370a082311461024357806395d89b4114610273578063a22cb4651461029157610100565b806312273805116100d3578063122738051461019f57806323b872dd146101bd5780632f39352a146101d957806342842e0e146101f757610100565b806301ffc9a71461010557806306fdde0314610135578063081812fc14610153578063095ea7b314610183575b600080fd5b61011f600480360381019061011a9190611e20565b610347565b60405161012c9190611e68565b60405180910390f35b61013d610429565b60405161014a9190611f1c565b60405180910390f35b61016d60048036038101906101689190611f74565b6104bb565b60405161017a9190611fe2565b60405180910390f35b61019d60048036038101906101989190612029565b610501565b005b6101a7610619565b6040516101b49190612078565b60405180910390f35b6101d760048036038101906101d29190612093565b610702565b005b6101e1610762565b6040516101ee9190611f1c565b60405180910390f35b610211600480360381019061020c9190612093565b6107f0565b005b61022d60048036038101906102289190611f74565b610810565b60405161023a9190611fe2565b60405180910390f35b61025d600480360381019061025891906120e6565b610897565b60405161026a9190612078565b60405180910390f35b61027b61094f565b6040516102889190611f1c565b60405180910390f35b6102ab60048036038101906102a6919061213f565b6109e1565b005b6102c760048036038101906102c291906122b4565b6109f7565b005b6102e360048036038101906102de9190611f74565b610a59565b6040516102f09190611f1c565b60405180910390f35b610301610b6c565b60405161030e9190611f1c565b60405180910390f35b610331600480360381019061032c9190612337565b610bfa565b60405161033e9190611e68565b60405180910390f35b60007f80ac58cd000000000000000000000000000000000000000000000000000000007bffffffffffffffffffffffffffffffffffffffffffffffffffffffff1916827bffffffffffffffffffffffffffffffffffffffffffffffffffffffff1916148061041257507f5b5e139f000000000000000000000000000000000000000000000000000000007bffffffffffffffffffffffffffffffffffffffffffffffffffffffff1916827bffffffffffffffffffffffffffffffffffffffffffffffffffffffff1916145b80610422575061042182610c8e565b5b9050919050565b606060008054610438906123a6565b80601f0160208091040260200160405190810160405280929190818152602001828054610464906123a6565b80156104b15780601f10610486576101008083540402835291602001916104b1565b820191906000526020600020905b81548152906001019060200180831161049457829003601f168201915b5050505050905090565b60006104c682610cf8565b6004600083815260200190815260200160002060009054906101000a900473ffffffffffffffffffffffffffffffffffffffff169050919050565b600061050c82610810565b90508073ffffffffffffffffffffffffffffffffffffffff168373ffffffffffffffffffffffffffffffffffffffff16141561057d576040517f08c379a00000000000000000000000000000000000000000000000000000000081526004016105749061244a565b60405180910390fd5b8073ffffffffffffffffffffffffffffffffffffffff1661059c610d43565b73ffffffffffffffffffffffffffffffffffffffff1614806105cb57506105ca816105c5610d43565b610bfa565b5b61060a576040517f08c379a0000000000000000000000000000000000000000000000000000000008152600401610601906124dc565b60405180910390fd5b6106148383610d4b565b505050565b60006106256007610e04565b60006106316007610e1a565b905060006040518061016001604052806101368152602001612ef96101369139905060008161065f84610e28565b604051602001610670929190612584565b604051602081830303815290604052905060006106bd61068f85610e28565b61069884610f00565b6040516020016106a99291906126e3565b604051602081830303815290604052610f00565b90506000816040516020016106d29190612774565b60405160208183030381529060405290506106ed3386611098565b6106f785826110b6565b849550505050505090565b61071361070d610d43565b8261112a565b610752576040517f08c379a000000000000000000000000000000000000000000000000000000000815260040161074990612808565b60405180910390fd5b61075d8383836111bf565b505050565b6009805461076f906123a6565b80601f016020809104026020016040519081016040528092919081815260200182805461079b906123a6565b80156107e85780601f106107bd576101008083540402835291602001916107e8565b820191906000526020600020905b8154815290600101906020018083116107cb57829003601f168201915b505050505081565b61080b838383604051806020016040528060008152506109f7565b505050565b60008061081c836114b9565b9050600073ffffffffffffffffffffffffffffffffffffffff168173ffffffffffffffffffffffffffffffffffffffff16141561088e576040517f08c379a000000000000000000000000000000000000000000000000000000000815260040161088590612874565b60405180910390fd5b80915050919050565b60008073ffffffffffffffffffffffffffffffffffffffff168273ffffffffffffffffffffffffffffffffffffffff161415610908576040517f08c379a00000000000000000000000000000000000000000000000000000000081526004016108ff90612906565b60405180910390fd5b600360008373ffffffffffffffffffffffffffffffffffffffff1673ffffffffffffffffffffffffffffffffffffffff168152602001908152602001600020549050919050565b60606001805461095e906123a6565b80601f016020809104026020016040519081016040528092919081815260200182805461098a906123a6565b80156109d75780601f106109ac576101008083540402835291602001916109d7565b820191906000526020600020905b8154815290600101906020018083116109ba57829003601f168201915b5050505050905090565b6109f36109ec610d43565b83836114f6565b5050565b610a08610a02610d43565b8361112a565b610a47576040517f08c379a0000000000000000000000000000000000000000000000000000000008152600401610a3e90612808565b60405180910390fd5b610a5384848484611663565b50505050565b6060610a6482610cf8565b6000600660008481526020019081526020016000208054610a84906123a6565b80601f0160208091040260200160405190810160405280929190818152602001828054610ab0906123a6565b8015610afd5780601f10610ad257610100808354040283529160200191610afd565b820191906000526020600020905b815481529060010190602001808311610ae057829003601f168201915b505050505090506000610b0e6116bf565b9050600081511415610b24578192505050610b67565b600082511115610b59578082604051602001610b41929190612926565b60405160208183030381529060405292505050610b67565b610b62846116d6565b925050505b919050565b60088054610b79906123a6565b80601f0160208091040260200160405190810160405280929190818152602001828054610ba5906123a6565b8015610bf25780601f10610bc757610100808354040283529160200191610bf2565b820191906000526020600020905b815481529060010190602001808311610bd557829003601f168201915b505050505081565b6000600560008473ffffffffffffffffffffffffffffffffffffffff1673ffffffffffffffffffffffffffffffffffffffff16815260200190815260200160002060008373ffffffffffffffffffffffffffffffffffffffff1673ffffffffffffffffffffffffffffffffffffffff16815260200190815260200160002060009054906101000a900460ff16905092915050565b60007f01ffc9a7000000000000000000000000000000000000000000000000000000007bffffffffffffffffffffffffffffffffffffffffffffffffffffffff1916827bffffffffffffffffffffffffffffffffffffffffffffffffffffffff1916149050919050565b610d018161173e565b610d40576040517f08c379a0000000000000000000000000000000000000000000000000000000008152600401610d3790612874565b60405180910390fd5b50565b600033905090565b816004600083815260200190815260200160002060006101000a81548173ffffffffffffffffffffffffffffffffffffffff021916908373ffffffffffffffffffffffffffffffffffffffff160217905550808273ffffffffffffffffffffffffffffffffffffffff16610dbe83610810565b73ffffffffffffffffffffffffffffffffffffffff167f8c5be1e5ebec7d5bd14f71427d1e84f3dd0314c0f7b2291e5b200ac8c7c3b92560405160405180910390a45050565b6001816000016000828254019250508190555050565b600081600001549050919050565b606060006001610e378461177f565b01905060008167ffffffffffffffff811115610e5657610e55612189565b5b6040519080825280601f01601f191660200182016040528015610e885781602001600182028036833780820191505090505b509050600082602001820190505b600115610ef5578080600190039150507f3031323334353637383961626364656600000000000000000000000000000000600a86061a8153600a8581610edf57610ede61294a565b5b0494506000851415610ef057610ef5565b610e96565b819350505050919050565b60606000825190506000811415610f295760405180602001604052806000815250915050611093565b60006003600283610f3a91906129a8565b610f4491906129fe565b6004610f509190612a2f565b90506000602082610f6191906129a8565b67ffffffffffffffff811115610f7a57610f79612189565b5b6040519080825280601f01601f191660200182016040528015610fac5781602001600182028036833780820191505090505b509050600060405180606001604052806040815260200161302f604091399050600181016020830160005b868110156110505760038101905062ffffff818a015116603f8160121c168401518060081b905060ff603f83600c1c1686015116810190508060081b905060ff603f8360061c1686015116810190508060081b905060ff603f831686015116810190508060e01b90508084526004840193505050610fd7565b50600386066001811461106a576002811461107a57611085565b613d3d60f01b6002830352611085565b603d60f81b60018303525b508484525050819450505050505b919050565b6110b28282604051806020016040528060008152506118d2565b5050565b6110bf8261173e565b6110fe576040517f08c379a00000000000000000000000000000000000000000000000000000000081526004016110f590612afb565b60405180910390fd5b80600660008481526020019081526020016000209080519060200190611125929190611d11565b505050565b60008061113683610810565b90508073ffffffffffffffffffffffffffffffffffffffff168473ffffffffffffffffffffffffffffffffffffffff16148061117857506111778185610bfa565b5b806111b657508373ffffffffffffffffffffffffffffffffffffffff1661119e846104bb565b73ffffffffffffffffffffffffffffffffffffffff16145b91505092915050565b8273ffffffffffffffffffffffffffffffffffffffff166111df82610810565b73ffffffffffffffffffffffffffffffffffffffff1614611235576040517f08c379a000000000000000000000000000000000000000000000000000000000815260040161122c90612b8d565b60405180910390fd5b600073ffffffffffffffffffffffffffffffffffffffff168273ffffffffffffffffffffffffffffffffffffffff1614156112a5576040517f08c379a000000000000000000000000000000000000000000000000000000000815260040161129c90612c1f565b60405180910390fd5b6112b2838383600161192d565b8273ffffffffffffffffffffffffffffffffffffffff166112d282610810565b73ffffffffffffffffffffffffffffffffffffffff1614611328576040517f08c379a000000000000000000000000000000000000000000000000000000000815260040161131f90612b8d565b60405180910390fd5b6004600082815260200190815260200160002060006101000a81549073ffffffffffffffffffffffffffffffffffffffff02191690556001600360008573ffffffffffffffffffffffffffffffffffffffff1673ffffffffffffffffffffffffffffffffffffffff168152602001908152602001600020600082825403925050819055506001600360008473ffffffffffffffffffffffffffffffffffffffff1673ffffffffffffffffffffffffffffffffffffffff16815260200190815260200160002060008282540192505081905550816002600083815260200190815260200160002060006101000a81548173ffffffffffffffffffffffffffffffffffffffff021916908373ffffffffffffffffffffffffffffffffffffffff160217905550808273ffffffffffffffffffffffffffffffffffffffff168473ffffffffffffffffffffffffffffffffffffffff167fddf252ad1be2c89b69c2b068fc378daa952ba7f163c4a11628f55a4df523b3ef60405160405180910390a46114b48383836001611933565b505050565b60006002600083815260200190815260200160002060009054906101000a900473ffffffffffffffffffffffffffffffffffffffff169050919050565b8173ffffffffffffffffffffffffffffffffffffffff168373ffffffffffffffffffffffffffffffffffffffff161415611565576040517f08c379a000000000000000000000000000000000000000000000000000000000815260040161155c90612c8b565b60405180910390fd5b80600560008573ffffffffffffffffffffffffffffffffffffffff1673ffffffffffffffffffffffffffffffffffffffff16815260200190815260200160002060008473ffffffffffffffffffffffffffffffffffffffff1673ffffffffffffffffffffffffffffffffffffffff16815260200190815260200160002060006101000a81548160ff0219169083151502179055508173ffffffffffffffffffffffffffffffffffffffff168373ffffffffffffffffffffffffffffffffffffffff167f17307eab39ab6107e8899845ad3d59bd9653f200f220920489ca2b5937696c31836040516116569190611e68565b60405180910390a3505050565b61166e8484846111bf565b61167a84848484611939565b6116b9576040517f08c379a00000000000000000000000000000000000000000000000000000000081526004016116b090612d1d565b60405180910390fd5b50505050565b606060405180602001604052806000815250905090565b60606116e182610cf8565b60006116eb6116bf565b9050600081511161170b5760405180602001604052806000815250611736565b8061171584610e28565b604051602001611726929190612926565b6040516020818303038152906040525b915050919050565b60008073ffffffffffffffffffffffffffffffffffffffff16611760836114b9565b73ffffffffffffffffffffffffffffffffffffffff1614159050919050565b600080600090507a184f03e93ff9f4daa797ed6e38ed64bf6a1f01000000000000000083106117dd577a184f03e93ff9f4daa797ed6e38ed64bf6a1f01000000000000000083816117d3576117d261294a565b5b0492506040810190505b6d04ee2d6d415b85acef8100000000831061181a576d04ee2d6d415b85acef810000000083816118105761180f61294a565b5b0492506020810190505b662386f26fc10000831061184957662386f26fc10000838161183f5761183e61294a565b5b0492506010810190505b6305f5e1008310611872576305f5e10083816118685761186761294a565b5b0492506008810190505b612710831061189757612710838161188d5761188c61294a565b5b0492506004810190505b606483106118ba57606483816118b0576118af61294a565b5b0492506002810190505b600a83106118c9576001810190505b80915050919050565b6118dc8383611ad0565b6118e96000848484611939565b611928576040517f08c379a000000000000000000000000000000000000000000000000000000000815260040161191f90612d1d565b60405180910390fd5b505050565b50505050565b50505050565b600061195a8473ffffffffffffffffffffffffffffffffffffffff16611cee565b15611ac3578373ffffffffffffffffffffffffffffffffffffffff1663150b7a02611983610d43565b8786866040518563ffffffff1660e01b81526004016119a59493929190612d92565b602060405180830381600087803b1580156119bf57600080fd5b505af19250505080156119f057506040513d601f19601f820116820180604052508101906119ed9190612df3565b60015b611a73573d8060008114611a20576040519150601f19603f3d011682016040523d82523d6000602084013e611a25565b606091505b50600081511415611a6b576040517f08c379a0000000000000000000000000000000000000000000000000000000008152600401611a6290612d1d565b60405180910390fd5b805181602001fd5b63150b7a0260e01b7bffffffffffffffffffffffffffffffffffffffffffffffffffffffff1916817bffffffffffffffffffffffffffffffffffffffffffffffffffffffff191614915050611ac8565b600190505b949350505050565b600073ffffffffffffffffffffffffffffffffffffffff168273ffffffffffffffffffffffffffffffffffffffff161415611b40576040517f08c379a0000000000000000000000000000000000000000000000000000000008152600401611b3790612e6c565b60405180910390fd5b611b498161173e565b15611b89576040517f08c379a0000000000000000000000000000000000000000000000000000000008152600401611b8090612ed8565b60405180910390fd5b611b9760008383600161192d565b611ba08161173e565b15611be0576040517f08c379a0000000000000000000000000000000000000000000000000000000008152600401611bd790612ed8565b60405180910390fd5b6001600360008473ffffffffffffffffffffffffffffffffffffffff1673ffffffffffffffffffffffffffffffffffffffff16815260200190815260200160002060008282540192505081905550816002600083815260200190815260200160002060006101000a81548173ffffffffffffffffffffffffffffffffffffffff021916908373ffffffffffffffffffffffffffffffffffffffff160217905550808273ffffffffffffffffffffffffffffffffffffffff16600073ffffffffffffffffffffffffffffffffffffffff167fddf252ad1be2c89b69c2b068fc378daa952ba7f163c4a11628f55a4df523b3ef60405160405180910390a4611cea600083836001611933565b5050565b6000808273ffffffffffffffffffffffffffffffffffffffff163b119050919050565b828054611d1d906123a6565b90600052602060002090601f016020900481019282611d3f5760008555611d86565b82601f10611d5857805160ff1916838001178555611d86565b82800160010185558215611d86579182015b82811115611d85578251825591602001919060010190611d6a565b5b509050611d939190611d97565b5090565b5b80821115611db0576000816000905550600101611d98565b5090565b6000604051905090565b600080fd5b600080fd5b60007fffffffff0000000000000000000000000000000000000000000000000000000082169050919050565b611dfd81611dc8565b8114611e0857600080fd5b50565b600081359050611e1a81611df4565b92915050565b600060208284031215611e3657611e35611dbe565b5b6000611e4484828501611e0b565b91505092915050565b60008115159050919050565b611e6281611e4d565b82525050565b6000602082019050611e7d6000830184611e59565b92915050565b600081519050919050565b600082825260208201905092915050565b60005b83811015611ebd578082015181840152602081019050611ea2565b83811115611ecc576000848401525b50505050565b6000601f19601f8301169050919050565b6000611eee82611e83565b611ef88185611e8e565b9350611f08818560208601611e9f565b611f1181611ed2565b840191505092915050565b60006020820190508181036000830152611f368184611ee3565b905092915050565b6000819050919050565b611f5181611f3e565b8114611f5c57600080fd5b50565b600081359050611f6e81611f48565b92915050565b600060208284031215611f8a57611f89611dbe565b5b6000611f9884828501611f5f565b91505092915050565b600073ffffffffffffffffffffffffffffffffffffffff82169050919050565b6000611fcc82611fa1565b9050919050565b611fdc81611fc1565b82525050565b6000602082019050611ff76000830184611fd3565b92915050565b61200681611fc1565b811461201157600080fd5b50565b60008135905061202381611ffd565b92915050565b600080604083850312156120405761203f611dbe565b5b600061204e85828601612014565b925050602061205f85828601611f5f565b9150509250929050565b61207281611f3e565b82525050565b600060208201905061208d6000830184612069565b92915050565b6000806000606084860312156120ac576120ab611dbe565b5b60006120ba86828701612014565b93505060206120cb86828701612014565b92505060406120dc86828701611f5f565b9150509250925092565b6000602082840312156120fc576120fb611dbe565b5b600061210a84828501612014565b91505092915050565b61211c81611e4d565b811461212757600080fd5b50565b60008135905061213981612113565b92915050565b6000806040838503121561215657612155611dbe565b5b600061216485828601612014565b92505060206121758582860161212a565b9150509250929050565b600080fd5b600080fd5b7f4e487b7100000000000000000000000000000000000000000000000000000000600052604160045260246000fd5b6121c182611ed2565b810181811067ffffffffffffffff821117156121e0576121df612189565b5b80604052505050565b60006121f3611db4565b90506121ff82826121b8565b919050565b600067ffffffffffffffff82111561221f5761221e612189565b5b61222882611ed2565b9050602081019050919050565b82818337600083830152505050565b600061225761225284612204565b6121e9565b90508281526020810184848401111561227357612272612184565b5b61227e848285612235565b509392505050565b600082601f83011261229b5761229a61217f565b5b81356122ab848260208601612244565b91505092915050565b600080600080608085870312156122ce576122cd611dbe565b5b60006122dc87828801612014565b94505060206122ed87828801612014565b93505060406122fe87828801611f5f565b925050606085013567ffffffffffffffff81111561231f5761231e611dc3565b5b61232b87828801612286565b91505092959194509250565b6000806040838503121561234e5761234d611dbe565b5b600061235c85828601612014565b925050602061236d85828601612014565b9150509250929050565b7f4e487b7100000000000000000000000000000000000000000000000000000000600052602260045260246000fd5b600060028204905060018216806123be57607f821691505b602082108114156123d2576123d1612377565b5b50919050565b7f4552433732313a20617070726f76616c20746f2063757272656e74206f776e6560008201527f7200000000000000000000000000000000000000000000000000000000000000602082015250565b6000612434602183611e8e565b915061243f826123d8565b604082019050919050565b6000602082019050818103600083015261246381612427565b9050919050565b7f4552433732313a20617070726f76652063616c6c6572206973206e6f7420746f60008201527f6b656e206f776e6572206f7220617070726f76656420666f7220616c6c000000602082015250565b60006124c6603d83611e8e565b91506124d18261246a565b604082019050919050565b600060208201905081810360008301526124f5816124b9565b9050919050565b600081905092915050565b600061251282611e83565b61251c81856124fc565b935061252c818560208601611e9f565b80840191505092915050565b7f3c2f746578743e3c2f7376673e00000000000000000000000000000000000000600082015250565b600061256e600d836124fc565b915061257982612538565b600d82019050919050565b60006125908285612507565b915061259c8284612507565b91506125a782612561565b91508190509392505050565b7f7b226e616d65223a202200000000000000000000000000000000000000000000600082015250565b60006125e9600a836124fc565b91506125f4826125b3565b600a82019050919050565b7f222c20226465736372697074696f6e223a20224120686967686c79206163636c60008201527f61696d656420636f6c6c656374696f6e2057617272696f7273222c2022696d6160208201527f6765223a2022646174613a696d6167652f7376672b786d6c3b6261736536342c604082015250565b60006126816060836124fc565b915061268c826125ff565b606082019050919050565b7f227d000000000000000000000000000000000000000000000000000000000000600082015250565b60006126cd6002836124fc565b91506126d882612697565b600282019050919050565b60006126ee826125dc565b91506126fa8285612507565b915061270582612674565b91506127118284612507565b915061271c826126c0565b91508190509392505050565b7f646174613a6170706c69636174696f6e2f6a736f6e3b6261736536342c000000600082015250565b600061275e601d836124fc565b915061276982612728565b601d82019050919050565b600061277f82612751565b915061278b8284612507565b915081905092915050565b7f4552433732313a2063616c6c6572206973206e6f7420746f6b656e206f776e6560008201527f72206f7220617070726f76656400000000000000000000000000000000000000602082015250565b60006127f2602d83611e8e565b91506127fd82612796565b604082019050919050565b60006020820190508181036000830152612821816127e5565b9050919050565b7f4552433732313a20696e76616c696420746f6b656e2049440000000000000000600082015250565b600061285e601883611e8e565b915061286982612828565b602082019050919050565b6000602082019050818103600083015261288d81612851565b9050919050565b7f4552433732313a2061646472657373207a65726f206973206e6f74206120766160008201527f6c6964206f776e65720000000000000000000000000000000000000000000000602082015250565b60006128f0602983611e8e565b91506128fb82612894565b604082019050919050565b6000602082019050818103600083015261291f816128e3565b9050919050565b60006129328285612507565b915061293e8284612507565b91508190509392505050565b7f4e487b7100000000000000000000000000000000000000000000000000000000600052601260045260246000fd5b7f4e487b7100000000000000000000000000000000000000000000000000000000600052601160045260246000fd5b60006129b382611f3e565b91506129be83611f3e565b9250827fffffffffffffffffffffffffffffffffffffffffffffffffffffffffffffffff038211156129f3576129f2612979565b5b828201905092915050565b6000612a0982611f3e565b9150612a1483611f3e565b925082612a2457612a2361294a565b5b828204905092915050565b6000612a3a82611f3e565b9150612a4583611f3e565b9250817fffffffffffffffffffffffffffffffffffffffffffffffffffffffffffffffff0483118215151615612a7e57612a7d612979565b5b828202905092915050565b7f45524337323155524953746f726167653a2055524920736574206f66206e6f6e60008201527f6578697374656e7420746f6b656e000000000000000000000000000000000000602082015250565b6000612ae5602e83611e8e565b9150612af082612a89565b604082019050919050565b60006020820190508181036000830152612b1481612ad8565b9050919050565b7f4552433732313a207472616e736665722066726f6d20696e636f72726563742060008201527f6f776e6572000000000000000000000000000000000000000000000000000000602082015250565b6000612b77602583611e8e565b9150612b8282612b1b565b604082019050919050565b60006020820190508181036000830152612ba681612b6a565b9050919050565b7f4552433732313a207472616e7366657220746f20746865207a65726f2061646460008201527f7265737300000000000000000000000000000000000000000000000000000000602082015250565b6000612c09602483611e8e565b9150612c1482612bad565b604082019050919050565b60006020820190508181036000830152612c3881612bfc565b9050919050565b7f4552433732313a20617070726f766520746f2063616c6c657200000000000000600082015250565b6000612c75601983611e8e565b9150612c8082612c3f565b602082019050919050565b60006020820190508181036000830152612ca481612c68565b9050919050565b7f4552433732313a207472616e7366657220746f206e6f6e20455243373231526560008201527f63656976657220696d706c656d656e7465720000000000000000000000000000602082015250565b6000612d07603283611e8e565b9150612d1282612cab565b604082019050919050565b60006020820190508181036000830152612d3681612cfa565b9050919050565b600081519050919050565b600082825260208201905092915050565b6000612d6482612d3d565b612d6e8185612d48565b9350612d7e818560208601611e9f565b612d8781611ed2565b840191505092915050565b6000608082019050612da76000830187611fd3565b612db46020830186611fd3565b612dc16040830185612069565b8181036060830152612dd38184612d59565b905095945050505050565b600081519050612ded81611df4565b92915050565b600060208284031215612e0957612e08611dbe565b5b6000612e1784828501612dde565b91505092915050565b7f4552433732313a206d696e7420746f20746865207a65726f2061646472657373600082015250565b6000612e56602083611e8e565b9150612e6182612e20565b602082019050919050565b60006020820190508181036000830152612e8581612e49565b9050919050565b7f4552433732313a20746f6b656e20616c7265616479206d696e74656400000000600082015250565b6000612ec2601c83611e8e565b9150612ecd82612e8c565b602082019050919050565b60006020820190508181036000830152612ef181612eb5565b905091905056fe3c7376672076696577426f783d2730203020333530203335302720786d6c6e733d27687474703a2f2f7777772e77332e6f72672f323030302f73766727203e3c7374796c653e2e62617365207b2066696c6c3a2077686974653b20666f6e742d66616d696c793a2073657269663b20666f6e742d73697a653a20323470783b207d3c2f7374796c653e3c636972636c652063783d27313735272063793d273137352720723d27313735272077696474683d273130302527206865696768743d2731303025272066696c6c3d27626c61636b273e3c2f636972636c653e3c7465787420783d273530252720793d273530252720636c6173733d27626173652720646f6d696e616e742d626173656c696e653d276d6964646c652720746578742d616e63686f723d276d6964646c65273e546f6b656e20234142434445464748494a4b4c4d4e4f505152535455565758595a6162636465666768696a6b6c6d6e6f707172737475767778797a303132333435363738392b2fa2646970667358221220739e24f9d705304142345164f80e6c70fa00d1818fa8830953212a55b1c17e2a64736f6c63430008090033",
  "linkReferences": {},
  "deployedLinkReferences": {}
}